{
  "_format": "hh-sol-artifact-1",
  "contractName": "Faucet",
  "sourceName": "contracts/Faucet.sol",
  "abi": [
    {
      "anonymous": false,
      "inputs": [
        {
          "indexed": true,
          "internalType": "address",
          "name": "from",
          "type": "address"
        },
        {
          "indexed": false,
          "internalType": "uint256",
          "name": "amount",
          "type": "uint256"
        }
      ],
      "name": "Deposit",
      "type": "event"
    },
    {
      "anonymous": false,
      "inputs": [
        {
          "indexed": true,
          "internalType": "address",
          "name": "to",
          "type": "address"
        },
        {
          "indexed": false,
          "internalType": "uint256",
          "name": "amount",
          "type": "uint256"
        }
      ],
      "name": "Withdraw",
      "type": "event"
    },
    {
      "inputs": [],
      "name": "checkBalance",
      "outputs": [
        {
          "internalType": "uint256",
          "name": "",
          "type": "uint256"
        }
      ],
      "stateMutability": "view",
      "type": "function"
    },
    {
      "inputs": [],
      "name": "withdraw",
      "outputs": [],
      "stateMutability": "payable",
      "type": "function"
    },
    {
      "stateMutability": "payable",
      "type": "receive"
    }
  ],
  "bytecode": "0x608060405234801561001057600080fd5b506104da806100206000396000f3fe60806040526004361061002d5760003560e01c80633ccfd60b1461008e578063c71daccb1461009857610089565b366100895761003a6100c3565b73ffffffffffffffffffffffffffffffffffffffff167fe1fffcc4923d04b559f4d29a8bfc6cda04eb5b0d3c460751c2402c5c5cc9109c3460405161007f91906102f7565b60405180910390a2005b600080fd5b6100966100cb565b005b3480156100a457600080fd5b506100ad6102d6565b6040516100ba91906102f7565b60405180910390f35b600033905090565b600066b1a2bc2ec5000090504781111561011a576040517f08c379a00000000000000000000000000000000000000000000000000000000081526004016101119061036f565b60405180910390fd5b60008060006101276100c3565b73ffffffffffffffffffffffffffffffffffffffff1673ffffffffffffffffffffffffffffffffffffffff168152602001908152602001600020549050620151808161017391906103be565b4210156101b5576040517f08c379a00000000000000000000000000000000000000000000000000000000081526004016101ac9061043e565b60405180910390fd5b426000806101c16100c3565b73ffffffffffffffffffffffffffffffffffffffff1673ffffffffffffffffffffffffffffffffffffffff1681526020019081526020016000208190555060006102096100c3565b73ffffffffffffffffffffffffffffffffffffffff168360405161022c9061048f565b60006040518083038185875af1925050503d8060008114610269576040519150601f19603f3d011682016040523d82523d6000602084013e61026e565b606091505b505090508061027c57600080fd5b6102846100c3565b73ffffffffffffffffffffffffffffffffffffffff167f884edad9ce6fa2440d8a54cc123490eb96d2768479d49ff9c7366125a9424364846040516102c991906102f7565b60405180910390a2505050565b600047905090565b6000819050919050565b6102f1816102de565b82525050565b600060208201905061030c60008301846102e8565b92915050565b600082825260208201905092915050565b7f536f7272792c206e6f7420656e6f75676820746f207769746864726177000000600082015250565b6000610359601d83610312565b915061036482610323565b602082019050919050565b600060208201905081810360008301526103888161034c565b9050919050565b7f4e487b7100000000000000000000000000000000000000000000000000000000600052601160045260246000fd5b60006103c9826102de565b91506103d4836102de565b92508282019050808211156103ec576103eb61038f565b5b92915050565b7f536f7272792c20796f75206861766520746f207761697420323420686f757273600082015250565b6000610428602083610312565b9150610433826103f2565b602082019050919050565b600060208201905081810360008301526104578161041b565b9050919050565b600081905092915050565b50565b600061047960008361045e565b915061048482610469565b600082019050919050565b600061049a8261046c565b915081905091905056fea2646970667358221220276a690abe193f4b69a80599e34dd0b42f02a630cd5a153dbb673d37896d4c0c64736f6c63430008130033",
  "linkReferences": {},
  "deployedLinkReferences": {}
}